Francia        20180602FRAGIL         000000000005
Francia        20181302FRAGIL         000000000005
Alemania       20180714INFLAMABLE     000000000017
Alemania       20181514INFLAMABLE     000000000017
Irlanda        20180716PERECEDERO     000000000009
Irlanda        20180616FRAGIL         000000000025
Francia        20180702PERECEDERO     000000000005
Irlanda        20180616PERECEDERO     000000000103
Francia        20180502PERECEDERO     toneladas005
Alemania       20180614INFLAMABLE     000000000077
Irlanda        20180616FRAGIL         000000000026
Francia        20180602FRAGIL         000000000001
